:020000040800F2
:1000000000A00020811700081D1200081F12000820
:100010002112000823120008251200080000000029
:10002000000000000000000000000000271200088F
:1000300029120008000000002B1200082D120008F1
:10004000D1170008D1170008D1170008D1170008F0
:10005000D1170008D117000835120008391300081D
:10006000311400083515000839160008D1170008AA
:10007000D1170008D1170008D1170008D1170008C0
:10008000D1170008D117000845160008D11700083D
:10009000D1170008D1170008D1170008D1170008A0
:1000A000D1170008D1170008D1170008D117000890
:1000B000D11700085D170008D1170008D1170008F4
:1000C000D1170008D1170008D1170008D117000870
:1000D000D1170008D11700086D170008D1170008C4
:1000E000D1170008D1170008D1170008D117000850
:1000F000D1170008D1170008D1170008D117000840
:10010000000000000000000000000000D1170008FF
:10011000D1170008D1170008D1170008D11700081F
:10012000D1170008D1170008D1170008D11700080F
:10013000D1170008D11700080000000000000000DF
:10014000D1170008D1170008D117000800000000DF
:10015000000000000000000000000000000000009F
:100160000000000000000000D1170008D1170008AF
:10017000D11700080000000000000000000000008F
:0801800000000000D117000887
:1001C00090F800F06DE9024520F007016FF0000C97
:1001D00010F0070491F820F040F049804FF000043F
:1001E0006FF00700D1E9002391F840F000F108001A
:1001F00082FA4CF2A4FA8CF283FA4CF3A2FA8CF352
:100200004BBBD1E9022382FA4CF200F10800A4FAB8
:100210008CF283FA4CF3A2FA8CF3E3B9D1E904230C
:1002200082FA4CF200F10800A4FA8CF283FA4CF343
:10023000A2FA8CF37BB9D1E9062301F1200182FAFD
:100240004CF200F10800A4FA8CF283FA4CF3A2FA03
:100250008CF3002BC6D0002A04BF04301A4612BA11
:10026000B2FA82F2FDE8024500EBD2007047D1E914
:10027000002304F00305C4F100004FEAC50514F0A3
:10028000040F91F840F00CFA05F562EA05021CBF74
:1002900063EA050362464FF00004A9E70348044BF4
:1002A000834202D0034B03B1184770471C00002063
:1002B0001C000020000000000548064B1B1AD90F47
:1002C00001EBA301491002D0034B03B1184770475B
:1002D0001C0000201C0000200000000010B5064C8F
:1002E000237843B9FFF7DAFF044B13B10448AFF3A7
:1002F00000800123237010BD2000002000000000BA
:10030000784C000808B5054B1BB105490548AFF30B
:100310000080BDE80840FFF7CFBF00BF000000002D
:1003200024000020784C000886B02D4B1B68B3F1E8
:10033000904F19D02B4A934225D02B4A93422DD06F
:100340002A4A934235D02A4A93423DD0294A9342C1
:1003500017D1294B5A6942F480025A615B6903F450
:1003600080030593059B0CE003F1784303F5043308
:100370005A6942F400325A615B6903F40033009316
:10038000009B06B070471C4B5A6942F480225A61A8
:100390005B6903F480230193019BF2E7164B5A69D2
:1003A00042F400225A615B6903F400230293029B2A
:1003B000E7E7114B5A6942F480125A615B6903F412
:1003C00080130393039BDCE70B4B5A6942F4001242
:1003D0005A615B6903F400130493049BD1E700BFE7
:1003E000440000200004004800080048000C0048B9
:1003F00000100048001400480010024010B4034CE4
:1004000020706170A270E37010BC70473C00002047
:1004100038B50D4D0D4C00222988206802F033FBC1
:10042000012001F021FA01222988206802F02BFB2B
:10043000012001F019FA00222988206802F023FB2C
:10044000012001F011FA38BD5800002044000020BE
:1004500038B5054600240BE045FA04F202F001022B
:10046000064B33F81410064B186802F00CFB0134ED
:10047000032CF1DDFFF7CCFF38BD00BF48000020A2
:100480004400002038B5054600240BE045FA04F28C
:1004900002F00102064B33F81410064B186802F004
:1004A000F2FA0134072CF1DDFFF7B2FF38BD00BFCF
:1004B000480000204400002010B504460A46104BB6
:1004C0001988104B186802F0DEFA0F4B1988FF29C3
:1004D00008D10E4B1B7813F0100F09D02046FFF700
:1004E000D1FF10BD0022074B186802F0CCFAF0E7EC
:1004F0002009FFF7ADFF2046FFF7AAFFF1E700BF95
:100500005C000020440000205A000020430000202E
:1005100008B500210120FFF7CFFF022001F0A4F968
:1005200008BD000008B5032900D90321074B1B783B
:100530008B4201D8013BD9B2054B5B5C184460F09B
:100540007F000021C0B2FFF7B7FF08BD40000020C8
:100550003C00002008B5054B187840F004021A70E2
:10056000002140F00C00FFF7A7FF08BD420000206B
:10057000F0B587B002460C46012904D95D490B78D5
:1005800043F008030B705C4B1C7002F140034021E8
:100590000020FFF733FF594B1B780BB1012C65D0BE
:1005A000FFF7C2FE0323049301230293544B1B78ED
:1005B000002B61D0534B1C8858889988DB88524A9D
:1005C0001288524D2D882A43514D2D882A432243AB
:1005D00002430A4313439BB201934E4C01A9206886
:1005E00002F062F9322001F03FF90022464B1988EF
:1005F000206802F048FA0022454B1988206802F072
:1006000042FA424B1988FF2956D13A4B187810F01C
:10061000100F56D10320FFF71BFF052001F024F92E
:100620000320FFF715FF052001F01EF90320FFF757
:100630000FFF012001F018F90220FFF709FF2D4BF1
:100640001878002140F02000FFF736FF324B0422DB
:100650001A70FFF77FFFFFF75BFF304B02221A7023
:1006600000210620FFF728FF07B0F0BD214A1378CC
:1006700043F00403137093E7224B1E885D88B3F8A0
:1006800004E0B3F806C01C8958899989DB891E4AA1
:1006900012881E4F3F883A431D4F3F883A433243EA
:1006A0002A434EEA02024CEA0202224302430A4370
:1006B00013439BB2019390E70022206802F0E3F914
:1006C000A3E7002140F02000FFF7F6FE052001F02F
:1006D000CBF8084C2078002140F02000FFF7ECFE1A
:1006E000012001F0C1F82078002140F02000FFF740
:1006F000E3FEA4E743000020400000205E0000204D
:1007000000000020480000205C0000205A0000206B
:10071000580000204400002042000020410000203A
:1007200010B5184C2280184A1380BDF80820174BCA
:100730001A80174B1960174BBDF80C201A80BDF8B2
:1007400010205A80BDF814209A80BDF81820DA8055
:10075000BDF81C201A81BDF820205A81BDF8242044
:100760009A81BDF82820DA8138B10B4B00221A702B
:1007700002211020FFF7FCFE10BD074B10221A705B
:10078000F6E700BF5C0000205A000020580000205F
:10079000440000204800002043000020F0B58BB04A
:1007A0008446BDF84040BDF84450BDF84860BDF8EF
:1007B0004C701248007888B100200890079006908D
:1007C00005900497039602950194009313460A46F8
:1007D00061460120FFF7A4FF0BB0F0BD0020089098
:1007E0000790069005900497039602950194009354
:1007F00013460A466146FFF793FFEDE7000000202D
:1008000070B580B10446FFF7DBFC002506E001214E
:1008100014F8010BFFF750FE01353046461E002844
:10082000F5D1284670BD0025FBE700002DE9F04119
:100830008CB000240794089409940A940B94574BA5
:100840005A6942F400125A615A6902F40012019284
:10085000019A5A6942F400225A615A6902F400224C
:100860000292029A5A6942F480025A615A6902F469
:1008700080020392039A5A6942F400325A615A691B
:1008800002F400320492049A5A6942F480125A61C6
:100890005A6902F480120592059A5A6942F480223C
:1008A0005A615B6903F480230693069B3C4E224603
:1008B0004FF60871304602F0E6F83A4F224647F606
:1008C0000F71384602F0DFF84FF6087307930125E1
:1008D000089509940A9407A9304601F0E5FF202302
:1008E00007934FF490130893099407A9304601F039
:1008F000DBFF0F2307934FF48818CDF820800223E5
:100900000993A6F5006607A9304601F0CDFF0795CB
:100910000894099407A94FF0904001F0C5FF1023F7
:100920000793CDF82080099407A9304601F0BCFF59
:1009300047F60F730793089509940A9407A9384658
:1009400001F0B2FF22462946062001F033FF0620BF
:1009500001F040FF22462946072001F02BFF072027
:1009600001F038FF22462946082001F023FF082025
:1009700001F030FF22462946092001F01BFF092023
:1009800001F028FF224629460A2001F013FF0A2021
:1009900001F020FF0CB0BDE8F08100BF0010024064
:1009A00000100048000C004872B6FEE708B5114878
:1009B000114B0360114B4360002383600122C2602E
:1009C000036143618361C361036202F079F850B946
:1009D0000021084802F0D2F838B90021054802F099
:1009E000FBF820B908BDFFF7DFFFFFF7DDFFFFF7DA
:1009F000DBFF00BFCC040020005400400E090020A3
:100A000008B50F480F4B03604FF482734360002317
:100A100083604FF44072C260036143614FF400721F
:100A200082610822C2610362436283620721C1625C
:100A30000363426302F0ECFE00B908BDFFF7B4FFA8
:100A4000680400200030014000B58FB000230A93F5
:100A50000B930C930D9307930893099300930193C1
:100A6000029303930493059306931E484FF080422C
:100A70000260436083604FF0FF32C26003618361B4
:100A800003F0CAF920BB4FF480530A930AA9154812
:100A900003F012FBF0B9134803F0EEF9E0B90023BC
:100AA0000793099307A90F4803F086FBB0B96023A9
:100AB000009300220192029204926946094803F0D1
:100AC00051FA68B9074800F0AFFA0FB05DF804FBBF
:100AD000FFF76AFFFFF768FFFFF766FFFFF764FFA6
:100AE000FFF762FF1C04002000B589B000230493C7
:100AF0000593069307930193029303931348144AB3
:100B0000026041F2BF22426083606422C2600361DE
:100B1000836103F081F990B94FF48053049304A9E1
:100B20000A4803F0C9FA60B900230193039301A9AD
:100B3000064803F041FB30B909B05DF804FBFFF74C
:100B400033FFFFF731FFFFF72FFF00BFD003002077
:100B50000004004008B50B480B4B03604FF41653DC
:100B6000436000238360C36003610C2242618361A0
:100B7000C3610362436203F04CFF00B908BDFFF795
:100B800013FF00BF4C0300200044004008B5084894
:100B9000084B036008234360022383600361002342
:100BA0008361036202F044F800B908BDFFF7FCFE60
:100BB00060000020005C004000B58BB0002307936C
:100BC0000893099301930293039304930593069367
:100BD0001B484FF0A042026043608360036143768C
:100BE00080F82030C36201228262C360C26180F853
:100BF0003030042242610376436300F0D1FEC0B975
:100C00000023079307A90E4801F0DEFC98B90223E0
:100C10000193012302930023049307220392059377
:100C2000069301A9064801F0F7FA30B90BB05DF858
:100C300004FBFFF7B9FEFFF7B7FEFFF7B5FE00BFF5
:100C40006805002000B587B000230093019302934C
:100C50000393049305931648164A02604360836029
:100C60000361437680F82030C36201228262C36050
:100C7000C26180F83030042242610376436300F0A1
:100C80008FFE80B901230093019300230393072271
:100C90000292049305936946054801F0BDFA20B914
:100CA00007B05DF804FBFFF77FFEFFF77DFE00BF96
:100CB000180500200001005000B59FB02822002137
:100CC00014A803F0F3FE00210F91109111911291DD
:100CD00013913C22684603F0E9FE032314934FF47A
:100CE000A0231593012318931023199302231B9318
:100CF0004FF480331C934FF480131D9314A802F01B
:100D000001F800BB0F230F930223109300231193CC
:100D10004FF480621292139301210FA802F042FB5C
:100D200098B90C4B0093002303934FF480720992FF
:100D300007934FF480030E93684602F039FC30B9F4
:100D40001FB05DF804FBFFF72FFEFFF72DFEFFF746
:100D50002BFE00BFA200020000B585B000F060FDD0
:100D6000FFF7AAFFFFF762FDFFF720FEFFF748FE3F
:100D7000FFF76AFEFFF7B8FEFFF7ECFEFFF706FF8E
:100D8000FFF71AFFFFF75EFF4FF4804303934FF422
:100D9000005302934FF4805301934FF40063009388
:100DA0004FF480634FF400724FF480710748FFF7EF
:100DB000F5FC04211420FFF7DBFB00210846FFF7B8
:100DC000B1FB0348FFF71CFDFEE700BF000C004825
:100DD000904C000800B583B00C4B9A6942F00102B8
:100DE0009A619A6902F001020092009ADA6942F06F
:100DF0008052DA61DB6903F080530193019B062086
:100E000001F0C6FC03B05DF804FB00BF0010024017
:100E100000B58BB0002305930693079308930993BD
:100E20000368B3F1A04F05D02F4A93422FD00BB0E7
:100E30005DF804FB2D4A136801331360012B1BD0AE
:100E40002B4B5A6942F400325A615B6903F4003358
:100E50000293029B022305930323069305A94FF0F7
:100E6000904001F021FD00221146122001F0A2FC69
:100E7000122001F0AFFCDAE71D4B5A6942F08052B4
:100E80005A615B6903F080530193019BD8E7174ACD
:100E9000136801331360012B1BD0154B5A6942F4C0
:100EA00000325A615B6903F400330493049B1023FE
:100EB00005930323069305A94FF0904001F0F4FC3D
:100EC00000221146122001F075FC122001F082FC74
:100ED000ADE7074B5A6942F080525A615B6903F0F3
:100EE00080530393039BD8E700010050B80500200E
:100EF0000010024010B588B00023039304930593BB
:100F0000069307930268134B9A4201D008B010BDB4
:100F1000114C636943F480236361636903F48023A4
:100F20000193019BC0230393122304930123059390
:100F3000032306930423079303A9084801F0B4FC94
:100F4000E36943F40013E361E36903F400130293DC
:100F5000029BDBE700540040001002400004004800
:100F600000B589B000230393049305930693079378
:100F70000268144B9A4202D009B05DF804FB03F5F5
:100F800060439A6942F480529A619A6902F48052ED
:100F90000192019A5A6942F400325A615B6903F482
:100FA00000330293029BE023039302230493032361
:100FB00006930523079303A94FF0904001F074FCBA
:100FC000DAE700BF0030014000B583B00368B3F139
:100FD000804F05D0124A93420ED003B05DF804FB57
:100FE00003F50433DA6942F00102DA61DB6903F0E8
:100FF00001030093009BF0E70A4BDA6942F002021A
:10100000DA61DB6903F002030193019B00221146C0
:101010001D2001F0CFFB1D2001F0DCFBDDE700BF50
:10102000000400400010024000B587B00023019387
:1010300002930393049305930368B3F1804F02D0A6
:1010400007B05DF804FB03F504335A6942F400323B
:101050005A615B6903F400330093009B4FF4004333
:101060000193022302930123059301A94FF09040BD
:1010700001F01AFCE4E7000000B589B000230393F7
:1010800004930593069307930268184B9A4202D083
:1010900009B05DF804FB03F5E633DA6942F4003287
:1010A000DA61DA6902F400320192019A5A6942F473
:1010B00000325A615B6903F400330293029B0C23F4
:1010C000039302230493032306930723079303A99F
:1010D0004FF0904001F0E8FB00221146262001F07D
:1010E00069FB262001F076FBD2E700BF00440040F8
:1010F00010B588B0002303930493059306930793D8
:101100000268134B9A4201D008B010BD114C6369BC
:1011100043F400336361636903F400330193019B7B
:101120004FF4C053039302230493032306930E2327
:10113000079303A94FF0904001F0B6FBE36943F435
:101140000003E361E36903F400030293029BDBE71E
:10115000005C00400010024008B500F07FFB2B4B04
:101160001A685B68801A63EB4303B0F5967F73F1EE
:10117000000313D3264B1A68264B1B6803EB82032C
:10118000092B0BD8DFE803F0050B11171D23292FBE
:10119000353B4FF48071204801F07AFC08BD4FF4D4
:1011A00080711D4801F074FCF8E74FF480711A4813
:1011B00001F06EFCF2E74FF48071174801F068FC13
:1011C000ECE74FF48071144801F062FCE6E74FF45D
:1011D0008071114801F05CFCE0E74FF480710E482B
:1011E00001F056FCDAE74FF480710B4801F050FC37
:1011F000D4E74FF48071084801F04AFCCEE74FF481
:101200008071054801F044FCC8E700BFC805002014
:10121000040000200800002000100048FEE7FEE760
:10122000FEE7FEE7FEE770477047704708B500F03D
:1012300009FB08BD10B500F011FB3A4B1A685B685A
:10124000801A63EB4303C92873F1000360D30024C1
:10125000354B1C600DE001221146344801F013FCAF
:101260000121334801F008FC10B1324B00221A6012
:101270000134032C3FDC00220F212C4801F003FC39
:10128000032CF5D801A353F824F000BF571200082F
:101290009D120008BB120008D91200080122022189
:1012A000224801F0F0FB0121214801F0E5FB002874
:1012B000DED0204B01221A60DAE7012204211B480C
:1012C00001F0E1FB01211A4801F0D6FB0028CFD044
:1012D000184B02221A60CBE701220821134801F0C3
:1012E000D2FB0121124801F0C7FB0028C0D0114BEE
:1012F00003221A60BCE7FFF72FFF01220F210B48E2
:1013000001F0C1FB00F0AAFA064B186000225A60F7
:101310000121074801F0B0FB0028F9D1012001F0BC
:10132000C1FB10BDC805002008000020000C0048CB
:10133000000800480400002010B500F08FFA374B79
:101340001A685B68801A63EB4303C92873F10003D2
:1013500063D3334B01221A6000240DE001221146B1
:10136000304801F090FB02212F4801F085FB10B1BD
:101370002E4B00221A600134032C3EDC00220F2188
:10138000284801F080FB032CF5D801A353F824F082
:101390005D130008A1130008BF130008DD13000847
:1013A000012202211F4801F06EFB02211E4801F0BC
:1013B00063FB0028DFD01D4B01221A60DBE701220E
:1013C0000421184801F05FFB0221174801F054FB8B
:1013D0000028D0D0154B02221A60CCE70122082148
:1013E000104801F050FB02210F4801F045FB002896
:1013F000C1D00E4B03221A60BDE7FFF7ADFE00F02F
:101400002DFA064B186000225A6001220F21054870
:1014100001F039FB022001F045FB10BDC80500209A
:1014200008000020000C00480008004804000020CC
:1014300010B500F013FA3A4B1A685B68801A63EB38
:101440004303C92873F1000360D3364B02221A60AC
:1014500000240DE001221146334801F014FB042161
:10146000324801F009FB10B1314B00221A600134FF
:10147000032C3EDC00220F212B4801F004FB032C3F
:10148000F5D801A353F824F0551400089914000866
:10149000B7140008D514000801220221224801F0E7
:1014A000F2FA0421214801F0E7FA0028DFD0204BAE
:1014B00001221A60DBE7012204211B4801F0E3FA54
:1014C00004211A4801F0D8FA0028D0D0184B022283
:1014D0001A60CCE701220821134801F0D4FA042154
:1014E000124801F0C9FA0028C1D0114B03221A603A
:1014F000BDE7FFF731FE01220F210B4801F0C3FACF
:1015000000F0ACF9064B186000225A60042107482D
:1015100001F0B2FA0028F9D1042001F0C3FA10BD9D
:10152000C805002008000020000C00480008004802
:101530000400002010B500F091F93A4B1A685B687E
:10154000801A63EB4303C92873F1000360D3364B61
:1015500003221A6000240DE001221146334801F0F5
:1015600092FA0821324801F087FA10B1314B00227B
:101570001A600134032C3EDC00220F212B4801F0BD
:1015800082FA032CF5D801A353F824F0591500086A
:101590009D150008BB150008D9150008012202217D
:1015A000224801F070FA0821214801F065FA00286C
:1015B000DFD0204B01221A60DBE7012204211B4807
:1015C00001F061FA08211A4801F056FA0028D0D03B
:1015D000184B02221A60CCE701220821134801F0BF
:1015E00052FA0821124801F047FA0028C1D0114BE5
:1015F00003221A60BDE7FFF7AFFD00F02FF9094B9A
:10160000186000225A6001220F21084801F03BFABD
:101610000821074801F030FA0028F9D1082001F02C
:1016200041FA10BDC805002008000020000C004849
:10163000000800480400002008B5102001F032FA2C
:1016400008BD000038B53A4A1368013313603949C0
:1016500081FB0321DA17C2EB6112642101FB123214
:1016600072B1354D284600F0E3FA344C204600F0C4
:10167000DFFA284600F0C0FB204600F0BDFB38BD75
:101680002D4800F0B1FB00EB400000EB40102C4B6C
:10169000A3FB00302B4A136803EB90131360274819
:1016A00000F0A2FB40F6E44303FB00F0264BA3FB53
:1016B0000023C01A03EB5003DB0A244A82FB0323F6
:1016C000234A116801EBA3031360194A1268B2F5AB
:1016D000617FC6D11F4C25681A4802681B4981FBEF
:1016E00002ECD217C2EBAC02226081FB0341DB1794
:1016F000C3EBA10318490B6000230D490B6014498B
:101700000B600360AA420CDB134B1A68104B1B687A
:101710009A42A6DD002204214FF0904001F0B3F977
:101720009FE7012204214FF0904001F0ACF9EBE774
:10173000C40500201F85EB51680500201805002016
:10174000D34D6210C0050020010110006766666677
:10175000BC050020D4050020D005002008B50248B3
:1017600002F031FA08BD00BFD003002008B50248DE
:1017700002F0B4FD08BD00BF4C030020704700001C
:10178000DFF834D00D480E490E4A002302E0D45849
:10179000C4500433C4188C42F9D30B4A0B4C0023B9
:1017A00001E013600432A242FBD3FFF7E7FF03F02E
:1017B000CFF9FFF7D1FAFEE700A0002000000020DB
:1017C0001C000020DC4C00082000002074070020D2
:1017D000FEE7000010B504460E4B1A784FF47A73FA
:1017E000B3FBF2F30C4A1068B0FBF3F001F000F821
:1017F00068B90F2C01D901200AE0002221464FF0E0
:10180000FF3000F0D7FF054B1C60002000E00120F6
:1018100010BD00BF100000200C00002014000020AC
:1018200008B5074A136843F010031360032000F063
:10183000AFFF0020FFF7CEFFFFF7CCFA002008BD76
:1018400000200240034A1168034B1B780B441360CD
:10185000704700BFD805002010000020014B186819
:10186000704700BFD805002038B50446FFF7F6FFE3
:101870000546B4F1FF3F02D0044B1B781C44FFF730
:10188000EDFF401BA042FAD338BD00BF100000207E
:1018900070477047704738B50268936803F00303D8
:1018A000012B01D0002038BD0446136813F0010F4E
:1018B00033D0936803F00D03012B09D0036C43F080
:1018C00010030364436C43F0010343640120EAE71F
:1018D000936843F002039360036803221A60FFF7E2
:1018E000BDFF054623689B6813F0010F13D0FFF777
:1018F000B5FF401B0228F5D923689B6813F0010F40
:10190000F0D0236C43F010032364636C43F00103B5
:1019100063640120C7E70020C5E70020C3E700009B
:1019200038B504460268936803F00303012B0DD019
:1019300091681A4B19420FD0236C43F010032364B3
:10194000636C43F001036364012038BD136813F036
:10195000010FEDD00020F8E7936843F00103936096
:10196000FFF77CFF054623681B6813F0010F13D1B6
:10197000FFF774FF431B022BF5D923681B6813F094
:10198000010FF0D1236C43F010032364636C43F028
:10199000010363640120D8E70020D6E73F00008000
:1019A00030B597B000230193002800F02F81044642
:1019B000036C13F0100F52D1036CABB100202368FD
:1019C0009A6812F0805F03D09B6813F0005F47D0E5
:1019D000236C23F0120343F010032364636C43F081
:1019E0000103636401203BE04364C364836480F8C3
:1019F0003C30FFF70DFA23689B6813F0805F01D03D
:101A00000020DCE72046FFF746FF236C13F0100FA1
:101A1000D5D10028D3D1236C23F4885323F00203BB
:101A200043F0020323642268936823F040539360D9
:101A30002268936843F080539360754B1B68754A26
:101A4000A2FB03239B0C03EB83035B00019302E0E7
:101A5000019B013B0193019B002BF9D1AFE70020D3
:101A6000236C13F0100F40F0C880002840F0C580B0
:101A70002368996811F0040140F0BF80226C22F4C1
:101A8000817242F002022264B3F1A04F14D0624A84
:101A900093420FD0614DB3F1A04F0FD05E4A9342F5
:101AA00067D05F4A934268D05E4A934269D0002271
:101AB000029205E05C4DEEE75B4DECE7564A029280
:101AC0009A6802F00302012A5FD0029B23B19A6850
:101AD00002F00302012A5DD0AB6823F44033626850
:101AE0001343AB60627E5303656B012D01D04FF44D
:101AF00080510B43E1680B43A1680B4394F820101D
:101B000001294CD0A26A012A0AD02168444DA94279
:101B100058D005F58075A94254D0E16A11430B43B2
:101B20002268916811F00C0F0CD1D16821F480412A
:101B300021F00201D160217E94F83020520042EA67
:101B4000813213432168CD68384A2A401A43CA605B
:101B50002369012B48D02268136B23F00F03136312
:101B600000236364236C23F0030343F00103236425
:101B70004AE04FF0A0420292A2E702F58072029280
:101B80009EE7A2F5807202929AE71B6813F0010F9C
:101B9000A8D19AE71B6813F0010FA3D19CE732B9D3
:101BA000626A013A43EA424242F48033AAE7226C75
:101BB00022F0220242F020022264626C42F0010212
:101BC00062649FE7B2F5307F08D0B2F5807F08D01D
:101BD000B2F5E07FA1D14FF480729EE74FF4E0723E
:101BE0009BE74FF4307298E721680B6B23F00F03EB
:101BF000E269013A13430B63B2E7236C23F012034B
:101C000043F010032364012017B030BD0120FBE72F
:101C10000C00002083DE1B43000100500007005031
:101C200000040050000500500003005007C0F0FF02
:101C300003689B6813F0040F40F0C98010B5044698
:101C400090F83C30012B00F0C480012380F83C3038
:101C5000FFF766FE002840F0B680236C23F4706323
:101C600023F0010343F4807323642368B3F1A04F8E
:101C70003ED0594A93423BD0584A926812F01F0F07
:101C80003BD1226C22F480122264DA6812F0007FC9
:101C900005D0226C22F4405242F480522264226C1D
:101CA00012F4805F49D0626C22F006026264002266
:101CB00084F83C201C221A606369082B40D02268FB
:101CC000536843F00C035360636B012B43D02368CC
:101CD000B3F1A04F45D0404A934242D03F4A926868
:101CE00012F01F0F42D19A6842F004029A606DE030
:101CF0003B4A926812F01F0FC3D0B3F1A04FC0D07F
:101D0000384A9342BDD0226C42F480122264324A97
:101D100093420CD0334AD268C2F34062002ABED04C
:101D2000226C22F4405242F480522264B7E74FF012
:101D3000A042D268C2F34062F0E700226264B6E7D4
:101D40002268536823F0040353602268536843F009
:101D500008035360B8E72268536823F01003536008
:101D6000B5E71F4A926812F01F0FBCD0B3F1A04F25
:101D700009D0194A934206D0184A926802F01F020D
:101D8000052A06D1AFE7164A926802F01F02052A1B
:101D9000A9D0B3F1A04F09D00F4A934206D00F4A01
:101DA000926802F01F02092A06D19CE70C4A926849
:101DB00002F01F02092A96D0B3F1A04F93D0094A2E
:101DC000934203D18FE7002384F83C3010BD0220FA
:101DD00070470220FAE700BF0001005000070050E2
:101DE00000030050000400500368186C70477047EF
:101DF000704770477047000010B5044603681A68C2
:101E000012F0040F03D05A6812F0040F07D11A68B9
:101E100012F0080F7FD05A6812F0080F7BD0226CA6
:101E200012F0100F03D1226C42F400722264B3F15D
:101E3000A04F28D08E4A934225D08E4A926812F045
:101E40001F0F25D1D968DA6812F4406F5DD111F403
:101E5000005F5AD11A6812F0080F56D09A6812F033
:101E6000040F4AD15A6822F00C025A60236C23F402
:101E700080732364236C13F4805F46D1236C43F09A
:101E80000103236441E07C4A926812F01F0FD9D00D
:101E9000B3F1A04F09D0764A934206D0754A9268B2
:101EA00002F01F02052A06D1CCE7734A926802F0BD
:101EB0001F02052AC6D0B3F1A04F09D06C4A934245
:101EC00006D06C4A926802F01F02092A06D1B9E7CF
:101ED000694A926802F01F02092AB3D0B3F1A04FF9
:101EE000B0D0664A9342ADD0614A934202D0634A71
:101EF000D168A8E74FF0A042FAE7236C43F0100343
:101F00002364636C43F0010363642046FFF7C0FC65
:101F100023680C221A6023681A6812F0200F03D07D
:101F20005A6812F0200F09D11A6812F0400F00F021
:101F3000E0805A6812F0400F00F0DB80226C42F41F
:101F400000522264B3F1A04F45D0494A934242D097
:101F5000484A926812F01F0F42D1D968DA6C12F029
:101F6000C00F40F0C08011F0007F08D0DA6812F492
:101F7000406F40F0B88011F4005F40F0B4801A6800
:101F800012F0400F00F0AF80B3F1A04F5DD0384A9F
:101F900093425AD0374A926812F01F0F5AD1DA682A
:101FA00012F4001F40F09F809A6812F0080F40F072
:101FB00092805A6822F060025A60236C23F48053A6
:101FC0002364236C13F4807F40F08D80236C43F0F6
:101FD0000103236487E0284A926812F01F0FBCD0E7
:101FE000B3F1A04F09D0224A934206D0214A926809
:101FF00002F01F02052A06D1AFE71F4A926802F0DD
:102000001F02052AA9D0B3F1A04F09D0184A934264
:1020100006D0184A926802F01F02092A06D19CE7EE
:10202000154A926802F01F02092A96D0B3F1A04F18
:1020300093D0124A934290D00D4A934202D00F4A55
:10204000D1688BE74FF0A042FAE70B4A926812F092
:102050001F0FA4D0B3F1A04F12D0054A93420FD066
:10206000044A926802F01F02062A0FD197E700BFC8
:102070000001005000070050000300500004005011
:10208000614A926802F01F02062A88D0B3F1A04F7D
:1020900009D05E4A934206D05D4A926802F01F0260
:1020A000072A07D17BE7584A926802F01F02072AE5
:1020B0003FF475AFB3F1A04F3FF471AF554A93426F
:1020C0003FF46DAF514A934202D0524AD26867E75B
:1020D0004FF0A042FAE7236C43F010032364636CD3
:1020E00043F0010363642046FFF781FE236860220A
:1020F0001A6023681A6812F0800F03D05B6813F02F
:10210000800F44D123681A6812F4807F03D05B6883
:1021100013F4807F46D123681A6812F4007F03D03D
:102120005B6813F4007F49D123681A6812F0100F1E
:1021300023D05A6812F0100F1FD0626B012A0ED004
:10214000B3F1A04F49D0314A934243D0304A91680D
:1021500011F01F0F43D1DB6813F0010F0AD0236C7D
:1021600043F480632364636C43F00203636420469A
:10217000FFF790FB236810221A6023681A6812F494
:10218000806F03D05A6812F4806F2DD110BD236C7C
:1021900043F4803323642046FFF77BFB23688022CF
:1021A0001A60AFE7236C43F4003323642046FFF743
:1021B00020FE23684FF480721A60ACE7236C43F46E
:1021C000802323642046FFF715FE23684FF4007236
:1021D0001A60A9E702F50072B9E70B4AB7E79368FE
:1021E00013F4404FC6D0BAE7226C42F48042226416
:1021F000626C42F0080262644FF480621A6020460A
:10220000FFF7F6FDC2E700BF0003005000010050D9
:10221000000700500004005030B496B00022019234
:1022200090F83C20012A00F0BC810346012280F88E
:102230003C200068826812F0040F40F0A7814A68D1
:10224000042A35D8046B02EB420252004FF01F0CF7
:102250000CFA02FC24EA0C0C0C6894404CEA0404CE
:1022600004631868826812F00C0F6BD10A68092A9F
:102270004FD9846902EB42021E3A4FF0070C0CFA68
:1022800002FC24EA0C048D6805FA02F22243826102
:1022900048691C68E268C2F3C102520090400A69B2
:1022A000013A032A00F29780DFE802F042747F8A45
:1022B000092A10D8446B02EB420252001E3A4FF03A
:1022C0001F0C0CFA02FC24EA0C040D6805FA02F259
:1022D00022434263C5E70E2A0DD8846B02EB42020B
:1022E00052003C3A1F25954024EA05040D689540AC
:1022F0002C438463B5E7C46B02EB420252005A3AA6
:102300001F25954024EA05040D6895402C43C463BD
:10231000A7E7446902EB42024FF0070C0CFA02FCFB
:1023200024EA0C048D6805FA02F222434261AFE709
:10233000256E9D4A2A400D6840EA85652A4342F091
:10234000004222661868826802F00302012A72D0F5
:10235000CA68012A75D0D0F8B02001240D68AC40BD
:1023600022EA0402C0F8B0201A68B2F1A04F00F0CF
:1023700091808E48824200F08B808D4C0968102934
:1023800000F08A80112900F09B80122900F09D80C6
:10239000002000E1656E844A2A400D6840EA8565A8
:1023A0002A4342F000426266CCE7A56E7E4A2A408C
:1023B0000D6840EA85652A4342F00042A266C1E703
:1023C000E26E794D15400A6840EA8262154345F095
:1023D0000045E566B6E7226E02F0F8420868B2EB07
:1023E000806F03D1226E22F0004222661A68506E7E
:1023F00000F0F8400C68B0EB846F03D1506E20F011
:10240000004050661A68906E00F0F8400C68B0EB1F
:10241000846F03D1906E20F0004090661A68D06EF1
:1024200000F0F8400C68B0EB846F8BD1D06E20F0D8
:102430000040D06686E7026812F0010F88D00020C5
:10244000A9E0D0F8B0200D680124AC402243C0F8C8
:10245000B0200A68092A0DD91D68A86902EB42025A
:102460001B3A0724944020EA04008C6894402043DF
:10247000A86179E71D686869013202EB420207240E
:10248000944020EA04008C689440204368616BE724
:10249000484C73E7474C71E7A06810F4000F7FF4D5
:1024A00071AFB2F1A04F16D0404882422AD04248C4
:1024B00082422BD0414882422CD0002002900CE076
:1024C000A06810F0807FECD05FE7A06810F4800F68
:1024D000E7D000205FE035480290906800F00300EC
:1024E00001281BD0029828B1856805F0030CBCF1C7
:1024F000010F1DD0102920D0112938D012293FD02A
:10250000002048E04FF0A0400290E6E700F5807020
:102510000290E2E7A0F580700290DEE7106810F00C
:10252000010FDFD01A6C42F020021A64012032E061
:10253000006810F0010FF5D1DCE7B2F1A04FDBD15C
:10254000A26842F40002A2601D4A12681D49A1FB64
:102550000212920C02EB82025200019202E0019AF6
:10256000013A0192019A002AF9D1002013E0B2F158
:10257000A04FC3D1A26842F08072A26000200AE09E
:10258000A26842F48002A260002004E01A6C42F0CB
:1025900020021A640120002283F83C2016B030BCCF
:1025A00070470220FAE700BF00F0FF8300010050EF
:1025B00000070050000300500004005000050050C8
:1025C0000C00002083DE1B4330B494B00346026845
:1025D000B2F1A04F0BD04F4882424CD04E488242BD
:1025E0004DD04E4882424ED00020009001E0494834
:1025F00000900098002800F0888093F83CC0BCF15F
:10260000010F00F08480012483F83C40946814F0AA
:10261000040F6FD1846814F0040F6BD1B2F1A04F96
:1026200037D03C4CA24232D03D4A0C68002C3ED000
:10263000946824F4604493F83050D1F804C04CEA14
:10264000453C44EA0C0494601D68AC6804F0030443
:10265000012C20D0846804F00304012C21D0906860
:1026600020F4716020F00F000C6889682143084352
:102670009060002043E04FF0A0400090B9E700F5E3
:1026800080700090B5E7A0F580700090B1E7254A12
:10269000CBE7244AC9E72C6814F0010FDAD00020F8
:1026A0002DE0006810F0010FD9D0002027E09168DC
:1026B00021F4604191601C68A16801F003010129C7
:1026C0000CD0816801F0030101290DD0916821F43B
:1026D000716121F00F019160002010E0216811F07C
:1026E000010FEED000200AE0016811F0010FEDD0DB
:1026F000002004E01A6C42F020021A64012000223B
:1027000083F83C2014B030BC70470120FAE7022067
:10271000F8E700BF00010050000400500005005021
:102720000007005000030050002808DB0901C9B26F
:1027300000F1604000F5614080F80013704700F040
:102740000F000901C9B2014B1954704714ED00E0A4
:1027500000B500F00700C0F1070CBCF1040F28BF62
:102760004FF0040C031D062B0FD9C31E4FF0FF3E84
:102770000EFA0CF021EA000199400EFA03FE22EA5B
:102780000E0241EA02005DF804FB0023EEE70000C0
:10279000074AD36823F4E0631B041B0C000200F417
:1027A000E060034343F0BF6343F40033D3607047FA
:1027B00000ED00E010B50446054BD868C0F30220D8
:1027C000FFF7C6FF01462046FFF7AEFF10BD00BF72
:1027D00000ED00E0002807DB00F01F0240090123A4
:1027E0009340024A42F82030704700BF00E100E009
:1027F0000138B0F1807F0BD24FF0E0235861054AD9
:10280000F02182F823100020986107221A61704796
:102810000120704700ED00E0034690F82120022AD5
:1028200006D004228263002280F820200120704715
:1028300001680A6822F00E020A6001680A6822F044
:1028400001020A60026CC06B012101FA02F24260CF
:1028500083F82110002083F82000704708B590F815
:102860002130022B03D004238363012008BD0268BA
:10287000136823F00E0313600268136823F001034A
:102880001360036CC16B012202FA03F34B6080F802
:102890002120002380F82030436B13B1984700209B
:1028A000E4E70020E2E7000070B582B0002365E0B5
:1028B00085685E000324B44025EA0405CC68B44072
:1028C0002C438460456825EA0C054C68C4F3001469
:1028D0009C402C43446062E0DD08083550F82540F8
:1028E00003F0070C4FEA8C0C4FF00F0E0EFA0CFEA3
:1028F00024EA0E0E0C6904FA0CF444EA0E0440F8C3
:10290000254063E0042400E0002404FA0EF42C4384
:102910000CF1020C544D45F82C40544C2568D4431E
:1029200025EA0206D1F804C01CF4803F01D042EA37
:1029300005064E4D2E606D6804EA0506D1F804C008
:102940001CF4003F01D042EA0506484D6E60AD68B8
:1029500004EA0506D1F804C01CF4801F01D042EA45
:102960000506424DAE60ED682C404E6816F4001F1F
:1029700001D042EA05043D4AD46001330A6832FAC4
:1029800003F46ED04FF0010C0CFA03FC1CEA0202B7
:10299000F3D04C6804F00304013C012C88D94C6846
:1029A00004F00304032C0CD0C4685D004FF0030C4A
:1029B0000CFA05FC24EA0C0C8C68AC4044EA0C04CC
:1029C000C4604C6804F00304022C85D004684FEA0C
:1029D000430E4FF0030C0CFA0EFC24EA0C0C4C686E
:1029E00004F0030404FA0EF444EA0C0404604C6896
:1029F00014F4403FC1D01E4CA56945F00105A56106
:102A0000A46904F001040194019C4FEA930C0CF1B9
:102A10000205154C54F8255003F0030E4FEA8E0EB4
:102A20000F2404FA0EF425EA0405B0F1904F3FF4A8
:102A30006BAF104CA0420ED004F58064A0420CD0C5
:102A400004F58064A0420AD004F58064A0423FF4FB
:102A500059AF052459E7012457E7022455E7032419
:102A600053E702B070BD00BF000001400004014008
:102A700000100240000400480369194201D00120FF
:102A80007047002070470AB18161704781627047CA
:102A9000436901EA030221EA030141EA024181613B
:102AA0007047704708B5054B5B69034200D108BD0C
:102AB000024B5861FFF7F5FFF9E700BF0004014042
:102AC000002859D010B5044690F84130002B43D06F
:102AD000242384F841302268136823F00103136033
:102AE0006368226823F0706313612268936823F49B
:102AF00000439360E368012B33D0A368226843F45A
:102B000004439360E368022B31D02268536843F09A
:102B1000007343F4004353602268D36823F40043F6
:102B2000D360236962691343A169226843EA0123E0
:102B3000D360E369216A22680B431360226813683B
:102B400043F00103136000206064202384F84130C7
:102B5000206384F8420010BD80F84030FEF7CAF9C7
:102B6000B6E7A368226843F400439360CAE723688A
:102B70004FF400625A60C8E701207047034690F89E
:102B80004120D2B2202A23D190F84020012A21D01E
:102B9000012280F84020242280F841200068026849
:102BA00022F0010202601868026822F4805202607A
:102BB000186802681143016019680A6842F001024E
:102BC0000A60202283F84120002083F840007047EB
:102BD0000220704702207047034690F84120D2B28D
:102BE000202A21D190F84020012A1FD0012280F80C
:102BF0004020242280F841200068026822F001026F
:102C000002601868026822F4706242EA01220260DF
:102C100019680A6842F001020A60202283F8412004
:102C2000002083F840007047022070470220704760
:102C3000002864D030B587B0044690F8A9323BB183
:102C4000032384F8A932206801F015FF00231FE058
:102C500080F8A832FEF74CFAF2E75A1C02EB820128
:102C600004EBC1010120487002EB820104F831300D
:102C700003EB830104EBC101CB8602EB820C04EB76
:102C8000CC0C00208CF803008863C8630864D3B2BE
:102C900060688342E1D3002316E003EB830204EB78
:102CA000C202002182F8691182F8683182F86B1142
:102CB000C2F87811C2F87C1103EB830204EBC20264
:102CC000C2F880110133DBB29842E6D8A4465CF822
:102CD000105BEE46BCE80F00AEE80F00DCF80030F9
:102CE000CEF80030231D0ECB284601F0CEFE00208A
:102CF00084F82400012384F8A93207B030BD0120F4
:102D000070470000002800F0FF8270B582B00446D2
:102D1000036813F0010F3BD0B44B5B6803F00C0366
:102D2000042B1ED0B14B5B6803F00C03082B13D0AF
:102D30006368B3F5803F68D0002B40F0928003F1C8
:102D4000804303F504331A6822F480321A601A684B
:102D500022F480221A605DE0A44B5B6813F4803F8C
:102D6000E6D04FF4003393FAA3F3A04B19684FF465
:102D7000003393FAA3F3B3FA83F303F01F030122A2
:102D800002FA03F30B4203D06368002B00F0BE820B
:102D9000236813F0020F00F0C480944B5B6813F0BB
:102DA0000C0F00F09C80914B5B6803F00C03082B28
:102DB00000F08F802369002B00F0F080012292FA4E
:102DC000A2F3B3FA83F303F1845303F584139B0056
:102DD0001A60FEF743FD0546022393FAA3F3834BE3
:102DE0001968022393FAA3F3B3FA83F303F01F03E2
:102DF000012202FA03F30B4240F0C280FEF72EFDDF
:102E0000401B0228E8D9032089E2784A136843F47A
:102E100080331360754AD36A23F00F03A1680B4314
:102E2000D3626368002B36D0FEF718FD05464FF4D9
:102E3000003393FAA3F36D4B19684FF4003393FA00
:102E4000A3F3B3FA83F303F01F03012202FA03F39F
:102E50000B429DD1FEF702FD401B6428E7D90320F9
:102E60005DE2B3F5A02F09D0604B1A6822F48032DE
:102E70001A601A6822F480221A60CBE703F18043BB
:102E8000A3F53C331A6842F480221A601A6842F4AF
:102E900080321A60BEE7FEF7E1FC05464FF40033CE
:102EA00093FAA3F3514B19684FF4003393FAA3F349
:102EB000B3FA83F303F01F03012202FA03F30B4278
:102EC0003FF466AFFEF7CAFC401B6428E6D9032036
:102ED00025E2464B5B6813F4803F7FF46BAF02231F
:102EE00093FAA3F3414B1968022393FAA3F3B3FABD
:102EF00083F303F01F03012202FA03F30B4203D012
:102F00002369934240F004823848036823F0F803B1
:102F10006169F82292FAA2F2B2FA82F291400B436E
:102F20000360236813F0080F00F08C80A369002B66
:102F300060D0012191FAA1F2B2FA82F22C4B134433
:102F40009B001960FEF78AFC0546022393FAA3F260
:102F500093FAA3F293FAA3F2244A516A93FAA3F3E1
:102F6000B3FA83F303F01F03012202FA03F30B42C7
:102F700068D1FEF773FC401B0228E6D90320CEE19E
:102F80001A48036823F0F8036169F82292FAA2F262
:102F9000B2FA82F291400B430360C2E7012393FA35
:102FA000A3F3B3FA83F303F1845303F584139B0073
:102FB00000221A60FEF752FC0546022393FAA3F39F
:102FC0000A4B1968022393FAA3F3B3FA83F303F0CD
:102FD0001F03012202FA03F30B42A2D0FEF73EFCCC
:102FE000401B0228E9D9032099E100BF00100240EC
:102FF00020819010012292FAA2F2B2FA82F2B74B2B
:1030000013449B0000221A60FEF728FC05460223A9
:1030100093FAA3F293FAA3F293FAA3F2B04A516A95
:1030200093FAA3F3B3FA83F303F01F03012202FA26
:1030300003F30B4206D0FEF711FC401B0228E6D931
:1030400003206CE1236813F0040F00F0A980A44B67
:10305000DB6913F0805F20D1A14BDA6942F0805226
:10306000DA61DB6903F080530193019B01259D4BDD
:103070001B6813F4807F12D0E368012B23D073BB4D
:1030800003F1804303F504331A6A22F001021A6245
:103090001A6A22F004021A621AE00025E7E7914A50
:1030A000136843F480731360FEF7D8FB06468D4B1C
:1030B0001B6813F4807FDFD1FEF7D0FB801B6428F0
:1030C000F5D903202BE1864A136A43F0010313620A
:1030D000E368002B3CD0FEF7C1FB06462EE0052B33
:1030E00009D07F4B1A6A22F001021A621A6A22F092
:1030F00004021A62ECE77A4B1A6A42F004021A627E
:103100001A6A42F001021A62E2E7022393FAA3F379
:10311000734B596A022393FAA3F3B3FA83F303F0D0
:103120001F03012202FA03F3194238D1FEF796FB7E
:10313000801B41F28833984200F2EC80022393FA1C
:10314000A3F293FAA3F3002BDFD0654B196AE1E7F2
:10315000FEF784FB064618E0022393FAA3F3604BC4
:10316000596A022393FAA3F3B3FA83F303F01F031C
:10317000012202FA03F3194211D0FEF76FFB801B04
:1031800041F28833984200F2C780022393FAA3F2F7
:1031900093FAA3F3002BDFD0514B196AE1E7B5BBDB
:1031A000E369002B00F0BA804D4A526802F00C022D
:1031B000082A00F09980022B2FD04FF0807393FAE9
:1031C000A3F3B3FA83F303F1845303F584139B0051
:1031D00000221A60FEF742FB04464FF0007393FA98
:1031E000A3F33F4B19684FF0007393FAA3F3B3FABC
:1031F00083F303F01F03012202FA03F319426BD099
:10320000FEF72CFB001B0228E7D9032087E0344A95
:10321000D36923F08053D361C2E74FF0807393FAF0
:10322000A3F3B3FA83F303F1845303F584139B00F0
:1032300000221A60FEF712FB05464FF0007393FA66
:10324000A3F3274B19684FF0007393FAA3F3B3FA73
:1032500083F303F01F03012202FA03F3194206D09D
:10326000FEF7FCFA401B0228E7D9032057E01C496F
:103270004B6823F47413626A206A024313434B6061
:103280004FF0807393FAA3F3B3FA83F303F18453FB
:1032900003F584139B0001221A60FEF7DFFA04464F
:1032A0004FF0007393FAA3F30D4B19684FF00073BE
:1032B00093FAA3F3B3FA83F303F01F03012202FA94
:1032C00003F3194206D1FEF7C9FA001B0228E7D919
:1032D000032024E0002022E0002020E02081901044
:1032E0000010024000700040012B1AD0104B5B68A8
:1032F00003F48031226A914215D103F47013626A9B
:10330000934212D100200AE001207047012006E01C
:10331000012004E0032002E0032000E0002002B0CE
:1033200070BD0120FBE70120F9E70120F7E700BFAE
:1033300000100240164B5B6803F00C02082A01D013
:103340001448704703F470114FF4701292FAA2F20D
:10335000B2FA82F221FA02F20F49885C0C4AD26A70
:1033600002F00F020F2191FAA1F1B1FA81F1CA40E6
:103370000A498A5C13F4803F05D0064BB3FBF2F395
:1033800003FB00F07047064B03FB00F0704700BFE3
:103390000010024000127A00C04C0008B04C000837
:1033A00000093D00002800F0BE8070B50D460446BF
:1033B000614B1B6803F007038B420BD25E4A136814
:1033C00023F007030B431360136803F007038B42DA
:1033D00040F0AB80236813F0020F06D0574A5368C1
:1033E00023F0F003A1680B435360236813F0010F2F
:1033F0005AD06368012B2DD0022B40D0022292FAC2
:10340000A2F24E4A1068022292FAA2F2B2FA82F2B4
:1034100002F01F02012101FA02F2104200F087803F
:1034200046494A6822F0030213434B60FEF716FA3E
:103430000646424B5B6803F00C036268B3EB820FF5
:1034400032D0FEF70BFA801B41F288339842F0D954
:10345000032067E04FF4003292FAA2F2374A106874
:103460004FF4003292FAA2F2B2FA82F202F01F0294
:10347000012101FA02F20242D2D1012052E04FF0C2
:10348000007292FAA2F22D4A10684FF0007292FA7E
:10349000A2F2B2FA82F202F01F02012101FA02F254
:1034A0001042BDD101203DE0234B1B6803F0070310
:1034B000AB420AD9204A136823F007032B43136059
:1034C000136803F00703AB4233D1236813F0040FF2
:1034D00006D01A4A536823F4E063E1680B43536053
:1034E000236813F0080F07D0144A536823F460537D
:1034F000216943EAC1035360FFF71CFF0F4B5B6870
:1035000003F0F003F02292FAA2F2B2FA82F2D34070
:103510000B4AD35CD8400B4B18600B4B1868FEF776
:1035200059F9002070BD012070470120FAE7012001
:10353000F8E70120F6E700BF00200240001002403B
:10354000A04C00080C00002014000020014B18685B
:10355000704700BF0C00002008B5FFF7F7FF074BCE
:103560005B6803F4E0634FF4E06292FAA2F2B2FA0D
:1035700082F2D340024AD35CD84008BD001002401A
:10358000984C000808B5FFF7E1FF074B5B6803F4B0
:1035900060534FF4605292FAA2F2B2FA82F2D34030
:1035A000024AD35CD84008BD00100240984C000885
:1035B000F0B583B00446036813F4803F48D0914BC4
:1035C000DB6913F0805F40F0D4808E4BDA6942F003
:1035D0008052DA61DB6903F080530193019B01257E
:1035E000894B1B6813F4807F00F0C580854B1B6AF4
:1035F00013F4407322D0626802F440729A421DD0E4
:103600008048016A21F440764FF4803393FAA3F2A4
:10361000B2FA82F27D4F3A4492004FF0010CC2F8A8
:1036200000C093FAA3F3B3FA83F33B449B00002258
:103630001A60066211F0010F40F0B280714A136AFD
:1036400023F4407361680B431362002D40F0CF8078
:10365000236813F0010F06D06A4A136B23F00303AB
:10366000A1680B431363236813F0020F06D0654A69
:10367000136B23F44033E1680B431363236813F0A7
:10368000040F06D05F4A136B23F4402321690B43D8
:103690001363236813F0200F06D05A4A136B23F0EC
:1036A0001003E1690B431363236813F4003F06D052
:1036B000544A536823F48003A16B0B43536023687F
:1036C00013F0400F06D04F4A136B23F02003216AFA
:1036D0000B431363236813F0080F06D0494A136B9A
:1036E00023F4401361690B431363236813F0100F35
:1036F00006D0444A136B23F44003A1690B431363C0
:10370000236813F4007F06D03E4A536823F4000375
:10371000E16A0B435360236813F0800F06D0394AE7
:10372000D36A23F4F873616A0B43D362236813F4FA
:10373000807F06D0334AD36A23F47853A16A0B43BF
:10374000D362236813F4805F06D02E4A136B23F4F0
:103750008073216B0B431363236813F4005F4DD018
:10376000284A136B23F40073616B0B43136300202F
:1037700045E0002534E7244A136843F4807313605E
:10378000FEF76CF80646204B1B6813F4807F7FF42D
:103790002DAFFEF763F8801B6428F4D903202EE0D8
:1037A000FEF75CF8064618E0022393FAA3F3154BE4
:1037B000596A022393FAA3F3B3FA83F303F01F03C6
:1037C000012202FA03F30B427FF438AFFEF746F80A
:1037D000801B41F2883398420ED8022393FAA3F259
:1037E00093FAA3F3002BDFD0064B196AE1E7D36904
:1037F00023F08053D3612BE7032000E0002003B0C7
:10380000F0BD00BF00100240007000400081901029
:1038100000286FD010B50446436A33B94368B3F546
:10382000827F05D00023C36102E00023036143616E
:103830000023A36294F85D30002B52D0022384F859
:103840005D302268136823F040031360E368B3F52A
:10385000E06F4CD90022B3F5706F04D0B3F5E06F80
:1038600001D00023A362636803F48273A16801F4AA
:1038700004410B43216901F002010B43616901F02E
:1038800001010B43A16901F400710B43E16901F0EF
:1038900038010B43216A01F080010B43A16A01F456
:1038A000005120680B430360638B03F00403616ADB
:1038B00001F010010B43616B01F008010B43E1685B
:1038C00001F470610B4321681A434A602268D3698E
:1038D00023F40063D36100202066012384F85D3067
:1038E00010BD84F85C302046FDF73AFBA6E74FF4A4
:1038F0008052B0E70120704730B4036A23F001031F
:103900000362026A4468836923F4803323F07303FB
:103910000D681D4322F002028B6813431C4A90423B
:103920000FD002F5006290420BD002F54062904247
:1039300007D002F58062904203D002F58062904287
:1039400005D123F00803CA681A4322F00403104A81
:1039500090420FD002F5006290420BD002F5406217
:10396000904207D002F58062904203D002F5806257
:10397000904205D124F440744A6922438C6914436F
:10398000446085614A684263036230BC704700BF8F
:10399000002C014030B4036A23F480730362036A8D
:1039A0004468C26922F4803222F073020D68154324
:1039B00023F400738A6843EA0223184A904203D032
:1039C00002F50062904206D123F40063CA6843EA1C
:1039D000022323F48063114A90420FD002F5006263
:1039E00090420BD002F54062904207D002F580620F
:1039F000904203D002F58062904207D124F44052F5
:103A00004C6942EA04128C6942EA04144460C561BC
:103A10004A68C263036230BC704700BF002C01409B
:103A200030B4036A23F480530362036A4468C269B2
:103A300022F0807222F4E6420D6842EA052223F465
:103A400000538D6843EA05330F4DA8420FD005F5AA
:103A50000065A8420BD005F54065A84207D005F5E2
:103A60008065A84203D005F58065A84204D124F4FE
:103A700080444D6944EA85144460C2614A68026426
:103A8000036230BC704700BF002C014030B4036AB1
:103A900023F480330362036A4468426D22F4803267
:103AA00022F070020D68154323F400338A6843EA5C
:103AB00002430F4A90420FD002F5006290420BD0B1
:103AC00002F54062904207D002F58062904203D036
:103AD00002F58062904204D124F480344A6944EAB9
:103AE0000224446045654A688265036230BC7047C1
:103AF000002C014030B4036A23F480130362036A8C
:103B00004468426D22F0807222F4E0420D6842EA7D
:103B1000052223F400138D6843EA05530F4DA84294
:103B20000FD005F50065A8420BD005F54065A84209
:103B300007D005F58065A84203D005F58065A84249
:103B400004D124F480244D6944EA8524446042650C
:103B50004A68C265036230BC704700BF002C014058
:103B600010B4036A046A24F001040462846924F036
:103B7000F00C4CEA021223F00A030B438261036249
:103B800010BC704710B4036A23F010030362846909
:103B9000036A24F4704C4CEA023223F0A00343EA97
:103BA00001138261036210BC7047836823F07003C5
:103BB0000B4343F0070383607047704770477047BB
:103BC00070477047704710B5044603681A6912F0D1
:103BD000020F11D0DA6812F0020F0DD06FF002025E
:103BE0001A610123037703689B6913F0030F79D0EF
:103BF000FFF7E6FF0023237723681A6912F0040F0A
:103C000012D0DA6812F0040F0ED06FF004021A61BD
:103C10000223237723689B6913F4407F68D02046F2
:103C2000FFF7CEFF0023237723681A6912F0080FED
:103C300012D0DA6812F0080F0ED06FF008021A6185
:103C4000042323772368DB6913F0030F57D0204642
:103C5000FFF7B6FF0023237723681A6912F0100FCD
:103C600012D0DA6812F0100F0ED06FF010021A6145
:103C7000082323772368DB6913F4407F46D020466E
:103C8000FFF79EFF0023237723681A6912F0010FC4
:103C900003D0DA6812F0010F3FD123681A6912F0DD
:103CA000800F03D0DA6812F0800F3DD123681A69C3
:103CB00012F4807F03D0DA6812F0800F3BD12368C2
:103CC0001A6912F0400F03D0DA6812F0400F39D1B0
:103CD00023681A6912F0200F03D0DA6812F0200F5F
:103CE00037D110BDFFF76BFF2046FFF76AFF81E772
:103CF0002046FFF764FF2046FFF763FF92E7204668
:103D0000FFF75DFF2046FFF75CFFA3E72046FFF7C4
:103D100056FF2046FFF755FFB4E76FF001021A6126
:103D20002046FFF74BFFB8E76FF080021A6120468C
:103D300000F08BFABAE76FF480721A61204600F047
:103D400085FABCE76FF040021A612046FFF73AFFA0
:103D5000BEE76FF020021A61204600F075FAC0E756
:103D600003682C4A90420ED0B0F1804F0BD0A2F5E0
:103D70009432904207D002F58062904203D002F55F
:103D80009632904203D123F070034A681343214ACC
:103D900090421AD0B0F1804F17D0A2F594329042E1
:103DA00013D002F5806290420FD002F59632904215
:103DB0000BD002F54062904207D002F5806290423B
:103DC00003D002F58062904203D123F44073CA68A5
:103DD000134323F080034A69134303608B68C36273
:103DE0000B6883620B4B98420FD003F50063984237
:103DF0000BD003F54063984207D003F580639842E7
:103E000003D003F58063984201D10B69036301235A
:103E100043617047002C014060B310B5044690F830
:103E20003D3013B3022384F83D30214651F8040B92
:103E3000FFF796FF012384F8483084F83E3084F879
:103E40003F3084F8403084F8413084F8423084F8C0
:103E5000433084F8443084F8453084F8463084F8A0
:103E6000473084F83D30002010BD80F83C30FDF72D
:103E7000ABF8D7E70120704760B310B5044690F85F
:103E80003D3013B3022384F83D30214651F8040B32
:103E9000FFF766FF012384F8483084F83E3084F849
:103EA0003F3084F8403084F8413084F8423084F860
:103EB000433084F8443084F8453084F8463084F840
:103EC000473084F83D30002010BD80F83C30FFF7CB
:103ED00074FED7E70120704730B4036A23F0100363
:103EE0000362036A4468826922F0807222F4E64227
:103EF0000D6842EA052223F020038D6843EA05138A
:103F0000174DA84203D005F50065A84206D123F05D
:103F10008003CD6843EA051323F04003104DA84207
:103F20000FD005F50065A8420BD005F54065A84205
:103F300007D005F58065A84203D005F58065A84245
:103F400007D124F4406C4C694CEA840C8C694CEA2F
:103F50008404446082614A688263036230BC7047B3
:103F6000002C014038B590F83C30012B00F09580D2
:103F700004460D46012380F83C30142A00F2888064
:103F8000DFE802F00B8686861F8686863486868664
:103F9000488686865D86868671000068FFF7ACFCE1
:103FA0002268936943F0080393612268936923F0C0
:103FB000040393612268936929690B43936100208C
:103FC00067E00068FFF788FF2268936943F40063A5
:103FD00093612268936923F48063936122689369F3
:103FE000296943EA01239361002052E00068FFF74A
:103FF000D1FC2268D36943F00803D3612268D369F6
:1040000023F00403D3612268D36929690B43D36188
:1040100000203EE00068FFF703FD2268D36943F407
:104020000063D3612268D36923F48063D36122687B
:10403000D369296943EA0123D361002029E000689C
:10404000FFF724FD2268536D43F00803536522688F
:10405000536D23F0040353652268536D29690B43A4
:104060005365002015E00068FFF744FD2268536D9A
:1040700043F4006353652268536D23F480635365F2
:104080002268536D296943EA01235365002000E04B
:104090000120002384F83C3038BD0220FCE710B436
:1040A000846824F47F4C42EA03220A4342EA0C0269
:1040B000826010BC7047000090F83C30012B76D035
:1040C00010B50446012380F83C30022380F83D30CF
:1040D00002689068374B034093600B68602B4CD0AC
:1040E00029D8402B54D00CD9502B22D1CA6849680A
:1040F0002068FFF735FD50212068FFF756FD0020AE
:1041000005E0202B0DD009D9302B0AD00120012346
:1041100084F83D30002384F83C3010BD0BB1102BE7
:1041200005D119462068FFF740FD0020EFE7012088
:10413000EDE70120EBE7B3F5805F34D0B3F5005F26
:104140000CD1CB684A6889682068FFF7A8FF22680D
:10415000936843F4804393600020D8E7702B24D108
:10416000CB684A6889682068FFF799FF22689368DE
:1041700043F0770393600020C9E7CA684968206864
:10418000FFF700FD60212068FFF70FFD0020BEE76C
:10419000CA6849682068FFF7E3FC40212068FFF700
:1041A00004FD0020B3E70020B1E70120AFE70220C3
:1041B000704700BF8800FEFF90F83C20012A3ED0E7
:1041C00030B40346012280F83C20022280F83D20D2
:1041D0000068426884681B4DA84203D005F500655D
:1041E000A84203D122F470024D682A4322F07002E3
:1041F0000D682A4342601A681248824212D0B2F116
:10420000804F0FD0A0F5943082420BD000F5806033
:10421000824207D000F59630824203D000F540601C
:10422000824204D124F080048968214391600122F4
:1042300083F83D20002083F83C0030BC704702200A
:10424000704700BF002C01407047704770470268FC
:1042500052E8003F23F4907342E800310029F6D180
:10426000026802F1080353E8003F23F0010308321B
:1042700042E800310029F3D1036E012B05D0202341
:10428000C3670023036643667047026852E8003F35
:1042900023F0100342E800310029F6D1EFE7704720
:1042A00008B5026852E8003F23F0400342E80031BD
:1042B0000029F6D12023836700238366FFF7EFFFF1
:1042C00008BD704708B5406A0023A0F85A30A0F82E
:1042D0005230FFF7F6FF08BD7047000070B5044686
:1042E0000268D3691168906840F60F0C13EA0C0F4E
:1042F0000AD113F0200F0DD011F0200F0AD0636EF9
:104300000BB3204698471EE010F001051CD1A84EC3
:10431000314219D1256E012D00F0A48013F4801FC5
:1043200003D010F4800F40F0308113F0800F03D0E1
:1043300011F0800F40F0308113F0400F03D011F0E6
:10434000400F40F0308170BD13F0010F09D011F41F
:10435000807F06D001201062D4F880200243C4F888
:10436000802013F0020F09D045B1226802201062AC
:10437000D4F8802042F00402C4F8802013F0040F27
:1043800009D045B1226804201062D4F8802042F0A0
:104390000202C4F8802013F0080F0BD011F0200F98
:1043A00000D13DB1226808201062D4F88020024379
:1043B000C4F8802013F4006F0CD011F0806F09D086
:1043C00022684FF400601062D4F8802042F020028E
:1043D000C4F88020D4F88020002AB4D013F0200F35
:1043E00006D011F0200F03D0636E0BB12046984722
:1043F000D4F8802023689B6813F0400F02D112F09C
:10440000280F28D02046FFF722FF23689B6813F06F
:10441000400F1CD0226802F1080353E8003F23F04C
:104420004003083242E800310029F3D1236F53B131
:10443000604A5A63206FFEF711FA002883D0206F7C
:10444000436B98477FE72046FFF73BFF7BE720461B
:10445000FFF737FF77E72046FFF733FF0023C4F865
:10446000803070E713F0100F3FF458AF11F0100FC9
:104470003FF454AF1023136223689B6813F0400F7E
:104480004CD0226F13685B689BB2002B3FF45BAF8C
:10449000B4F8581099427FF656AFA4F85A30936991
:1044A000202B30D0226852E8003F23F4807342E88A
:1044B00000310029F6D1226802F1080353E8003FD9
:1044C00023F00103083242E800310029F3D12268C9
:1044D00002F1080353E8003F23F04003083242E8AA
:1044E00000310029F3D12023E367002323662268EB
:1044F00052E8003F23F0100342E800310029F6D1D2
:10450000206FFEF789F9B4F85810B4F85A309BB20E
:10451000C91A89B22046FFF7DFFE14E7B4F8581035
:10452000B4F85A309BB2C91A89B2B4F85A309BB267
:10453000002B3FF408AF00293FF405AF226852E892
:10454000003F23F4907342E800300028F6D122683F
:1045500002F1080353E8003F23F00103083242E868
:1045600000300028F3D12023E3670023236663662D
:10457000226852E8003F23F0100342E80030002890
:10458000F6D12046FFF7A8FEDDE64FF48013136254
:10459000204600F06FFAD6E6A36E002B3FF4D3AEB0
:1045A00020469847CFE62046FFF77AFECBE600BFCD
:1045B00020010004C542000810B504468368026962
:1045C0001A4343691A43C3691A4301680B6823F409
:1045D000164323F00C0313430B600268536823F463
:1045E0004053C1680B4353608269036A1A430168F0
:1045F0008B6823F4306313438B6003687B4A9342D8
:104600000DD07B4A93421CD07A4A93423AD07A4AE0
:1046100093424AD0794A93425AD010231FE0784BF4
:104620001B6B03F00303032B09D8DFE803F002043C
:104630000664012313E0042311E008230FE0102394
:104640000DE06F4B1B6B03F44033B3F5003F54D0C8
:1046500013D8002B53D0B3F5803F52D10423E06927
:10466000B0F5004F69D0082B00F2B980DFE803F005
:1046700092A890B7ABB7B7B7AE00B3F5403F42D101
:104680000223ECE75E4B1B6B03F44023B3F5002FD2
:104690003BD005D8DBB3B3F5802F3AD10423DEE756
:1046A000B3F5402F37D10223D9E7554B1B6B03F4E9
:1046B0004013B3F5001F30D005D883B3B3F5801F86
:1046C0002FD10423CBE7B3F5401F2CD10223C6E73B
:1046D0004B4B1B6B03F44003B3F5000F25D005D8FB
:1046E0002BB3B3F5800F24D10423B8E7B3F5400F03
:1046F00021D10223B3E70223B1E70823AFE7002368
:10470000ADE71023ABE71023A9E70823A7E70023B1
:10471000A5E71023A3E71023A1E708239FE70023C1
:104720009DE710239BE7102399E7082397E70023D1
:1047300095E7102393E7102391E7082B49D8DFE88A
:1047400003F0051F2548224848480900FEF704FFEA
:10475000002840D06268530803EB4003B3FBF2F338
:104760009BB2A3F110014FF6EF72914235D823F0BE
:104770000F02C3F3420313432268D36000201BE0FF
:10478000FEF700FFE4E7FEF7D5FDE1E71D48E1E7AE
:104790001C4802E0FEF7E0FE18B3636800EB53002C
:1047A000B0FBF3F080B2A0F110024FF6EF739A4223
:1047B00019D82368D860002000236366A36610BD63
:1047C000FEF7E0FEE8E7FEF7B5FDE5E74FF4004051
:1047D000E3E70120F0E70020EEE70120ECE701200D
:1047E000EAE70020E8E70120E6E700BF00380140E3
:1047F0000044004000480040004C00400050004091
:104800000010024000127A00436A13F0010F06D034
:104810000268536823F40033816A0B435360436A90
:1048200013F0020F06D00268536823F48033C16A84
:104830000B435360436A13F0040F06D002685368B9
:1048400023F48023016B0B435360436A13F0080F7A
:1048500006D00268536823F40043416B0B43536056
:10486000436A13F0100F06D00268936823F4805354
:10487000816B0B439360436A13F0200F06D00268EC
:10488000936823F40053C16B0B439360436A13F0A6
:10489000400F0AD00268536823F48013016C0B4365
:1048A0005360036CB3F5801F0BD0436A13F0800F85
:1048B00006D00268536823F40023816C0B435360D5
:1048C00070470268536823F4C003416C0B43536084
:1048D000EBE72DE9F84305460F4616469946DDF805
:1048E00020802B68DC6937EA04040CBF0124002413
:1048F000B44253D1B8F1FF3FF3D0FCF7AFFFA0EBC8
:10490000090040452DD8B8F1000F2AD02B681A684D
:1049100012F0040FE5D0DA6912F4006FE1D04FF421
:1049200000621A622A6852E8003F23F4D07342E81A
:1049300000310029F6D12A6802F1080353E8003F4C
:1049400023F00103083242E800310029F3D120238B
:10495000AB67EB67C5F88030002385F8743003201F
:104960001DE02A6852E8003F23F4D07342E800318A
:104970000029F6D12A6802F1080353E8003F23F02A
:104980000103083242E800310029F3D12023AB674C
:10499000EB67002385F87430032000E00020BDE8B9
:1049A000F88330B583B004460023C0F88030FCF7AC
:1049B00055FF05462268126812F0080F0DD12368D2
:1049C0001B6813F0040F16D12023A367E3670020B0
:1049D000206684F8740003B030BD6FF07E4300930E
:1049E000034600224FF400112046FFF772FF002813
:1049F000E5D00320EFE76FF07E4300932B460022C3
:104A00004FF480012046FFF764FF0028DCD003202C
:104A1000E1E768B310B50446836F03B32423A367AB
:104A20002268136823F0010313602046FFF7C4FDDA
:104A3000012813D0636ABBB92268536823F49043FA
:104A400053602268936823F02A03936022681368F6
:104A500043F0010313602046FFF7A3FF10BD80F869
:104A60007430FCF709FBD9E72046FFF7CDFEE3E7FA
:104A7000012070477047B0F8403023F47C535B044A
:104A80005B0CA0F840300020704784B0844601A839
:104A900080E80E000123ACF840300020ACF8400064
:104AA000ACF84400ACF8500004B07047830730B550
:104AB00047D0541E002A3ED0CAB2034601E0013C52
:104AC00039D303F8012B9D07F9D1032C2CD9CDB292
:104AD00005EB05250F2C05EB054535D9A4F1100292
:104AE00022F00F0C03F1100EE6444FEA121C1A4696
:104AF000156055609560D56010327245F8D10CF1A3
:104B0000010214F00C0F03EB021204F00F0C13D08F
:104B1000ACF1040323F003030433134442F8045BB1
:104B20009A42FBD10CF003042CB1C9B21C4403F827
:104B3000011B9C42FBD130BD64461346002CF4D1CE
:104B4000F9E703461446C0E71A46A446E0E700BF6B
:104B500070B50F4B0F4DAB42A3EB050607D0B61057
:104B6000002455F8043B01349847A642F9D800F0D8
:104B700083F8094D094B5E1BAB424FEAA60606D0EF
:104B8000002455F8043B01349847A642F9D870BD7B
:104B9000D04C0008D04C0008D04C0008D84C00087D
:104BA000704700BF704700BF024B13B1024800F0CE
:104BB00005B8704700000000C94B000800230146FB
:104BC0001A46184600F014B838B5074D074C2C1B90
:104BD000A41005D0013C55F8043D9847002CF9D1AC
:104BE000BDE8384000F04EB8DC4C0008D84C000856
:104BF0002DE9F047DFF874A00646DAF80000984681
:104C00000F469146FFF7CCFF194B1C6824B365682B
:104C10001F2D24DC5EB96B1C0235DAF800006360DE
:104C200044F82570FFF7BEFF0020BDE8F08704EBD5
:104C300085010123C1F88890D4F88821AB401A433C
:104C4000022EC4F88821C1F80881E4D1D4F88C215F
:104C50001A43C4F88C21DEE7064C1C60D7E7DAF86B
:104C60000000FFF79FFF4FF0FF30DEE71800002045
:104C7000E0050020E4050020F8B500BFF8BC08BC42
:104C80009E467047F8B500BFF8BC08BC9E4670470A
:104C900068656C6C6F0000000000000001020304F6
:104CA00000000000000000000102030406070809DC
:104CB0000102030405060708090A0B0C0D0E0F106C
:104CC00002030405060708090A0B0C0D0E0F10104D
:084CD000A94B000805030008D0
:044CD800DD020008F1
:104CDC0001000000FFFFFFFFFFFFFFFF00127A0043
:0C4CEC000100000010000000DC050020AA
:040000050800178157
:00000001FF
